:020000040800F2
:1000000000000220F9200008A11E0008A31E00081D
:10001000A51E0008A71E0008A91E00080000000079
:10002000000000000000000000000000AB1E0008FF
:10003000AD1E000800000000AF1E0008B11E000841
:1000400049210008492100084921000849210008E8
:1000500049210008492100084921000849210008D8
:1000600049210008492100084921000849210008C8
:1000700049210008492100084921000849210008B8
:10008000492100084921000849210008000000001A
:1000900000000000000000000000000049210008EE
:1000A00049210008B91E000849210008492100081B
:1000B0004921000849210008492100084921000878
:1000C0004921000849210008492100084921000868
:1000D00049210008492100084921000800000000CA
:1000E000D11E000849210008492100080000000035
:1000F000000000000000000000000000492100088E
:100100000000000049210008ED1E000849210008F8
:1001100000000000000000000000000000000000DF
:100120004921000849210008492100084921000807
:10013000492100080000000000000000000000004D
:10014000000000000000000000000000492100083D
:1001500049210008492100084921000849210008D7
:1001600049210008492100080000000000000000AB
:10017000000000000000000000000000000000007F
:1001800000000000492100080000000000000000FD
:08019000492100084921000883
:1001980010B5054C237833B9044B13B10448AFF3B9
:1001A80000800123237010BD18000020000000000B
:1001B800A421000808B5034B1BB103490348AFF35A
:1001C800008008BD000000001C000020A4210008D9
:1001D80053B94AB9002908BF00281CBF4FF0FF31A6
:1001E8004FF0FF3000F072B9ADF1080C6DE904CEA4
:1001F80000F006F8DDF804E0DDE9022304B07047FA
:100208002DE9F047089E04468846002B4BD18A42C8
:10021800154667D9B2FA82F24AB1C2F1200701FA4B
:1002280002F320FA07F7954047EA030894404FEA9B
:10023800154E230CB8FBFEF71FFA85FC0EFB17883A
:1002480043EA084307FB0CF1994209D9EB1807F177
:10025800FF3080F01B81994240F21881023F2B4405
:100268005B1AA4B2B3FBFEF00EFB103344EA03445E
:1002780000FB0CFCA44509D92C1900F1FF3380F0D0
:100288000781A44540F2048102382C4440EA074023
:10029800A4EB0C0400271EB1D4400023C6E9004398
:1002A8003946BDE8F0878B4209D9002E00F0EB8073
:1002B8000027C6E9000138463946BDE8F087B3FA99
:1002C80083F7002F47D18B4202D3824200F2FA8093
:1002D800841A61EB030301209846002EE0D0C6E99A
:1002E8000048DDE702B9FFDEB2FA82F2002A40F0E8
:1002F8008F80491B4FEA154E1FFA85F80127B1FB7D
:10030800FEFC230C0EFB1C1143EA014308FB0CF115
:10031800994207D9EB180CF1FF3002D2994200F24A
:10032800CD808446591AA3B2B1FBFEF00EFB10141F
:1003380043EA044408FB00F8A04507D92C1900F14A
:10034800FF3302D2A04500F2B6801846A4EB080499
:1003580040EA0C409FE7C7F1200CBB4022FA0CFE94
:100368004EEA030E01FA07F420FA0CF521FA0CF311
:100378004FEA1E482543B3FBF8F92C0C08FB193348
:100388001FFA8EFA44EA034309FB0AF49C4202FA74
:1003980007F200FA07F10BD91EEB030309F1FF304E
:1003A80080F087809C4240F28480A9F1020973445E
:1003B8001B1BADB2B3FBF8F008FB103345EA03444E
:1003C80000FB0AFAA24508D91EEB040400F1FF332A
:1003D8006BD2A24569D90238744440EA0940A0FBAF
:1003E8000289A4EB0A044C45C2464B4654D351D06B
:1003F800002E69D0B1EB0A0564EB030404FA0CFC87
:10040800FD40FC404CEA0505C6E90054002747E7D3
:10041800C2F1200320FA03F7954001FA02F021FA0D
:1004280003F34FEA154E3843010CB3FBFEF71FFAEE
:1004380085F80EFB173341EA034107FB08F38B42AB
:1004480004FA02F407D9691807F1FF3C2FD28B424E
:100458002DD9023F2944CB1A81B2B3FBFEF00EFB23
:10046800103341EA034100FB08F38B4207D96918AE
:1004780000F1FF3C17D28B4215D902382944C91A1A
:1004880040EA07473BE73746304609E70746E7E6CD
:100498001846FBE64145ABD2B8EB020A69EB0E02FF
:1004A80001381346A4E76046E9E7184695E767462A
:1004B800D1E781467CE702382C4447E7ACF1020CCF
:1004C8002B442FE7384608E73746E9E6704700BF70
:1004D80010B504460E4B18784FF47A73B3FBF0F35B
:1004E8000C4A1068B0FBF3F000F0AAF868B90F2CBA
:1004F80001D901200AE0002221464FF0FF3000F028
:100508005DF8034B5C60002000E0012010BD00BFD7
:10051800000000201400002008B50B4B1A6842F4B4
:1005280000721A601A6842F480621A601A6842F40B
:1005380080721A60032000F02FF80020FFF7C8FF30
:1005480001F08EFC002008BD003C0240034A1168FF
:10055800034B1B780B441360704700BF3800002022
:1005680000000020014B1868704700BF38000020C9
:1005780038B50446FFF7F6FF0546B4F1FF3F02D051
:10058800044B1B781C44FFF7EDFF401BA042FAD335
:1005980038BD00BF00000020074AD36823F4E06399
:1005A8001B041B0C000200F4E060184340F0BF601D
:1005B80040F40030D060704700ED00E030B4174BD5
:1005C800DB68C3F30223C3F10704042C28BF042407
:1005D8001D1D062D18D9033B4FF0FF3505FA04F40D
:1005E80021EA0401994005FA03F322EA03031943B7
:1005F80000280BDB0901C9B200F1604000F5614039
:1006080080F8001330BC70470023E5E700F00F00C6
:100618000901C9B2024B1954F4E700BF00ED00E02C
:1006280014ED00E0002807DB00F01F024009012359
:100638009340024A42F82030704700BF00E100E0D2
:100648000138B0F1807F0AD2064B5860064AF02183
:1006580082F823100020986007221A607047012052
:10066800704700BF10E000E000ED00E000230F2B12
:1006780000F2C580F0B583B039E0042200E0002222
:10068800AA403A4302345E4D45F824205D4A146876
:10069800F24302EA04054F6817F4803F01D046EAA6
:1006A8000405584C2560646802EA04054F6817F48D
:1006B800003F01D046EA0405524C6560A46802EA8E
:1006C80004054F6817F4801F01D046EA04054D4C15
:1006D800A560E46822404D6815F4001F01D046EA81
:1006E8000402484CE26001330F2B00F2868001229D
:1006F8009A400C6804EA0206B242F4D14C68651EBE
:10070800012D03D9112C01D0122C12D185685F005C
:100718000324BC4025EA0405CC68BC402C43846013
:10072800456825EA02054C68C4F300129A402A433A
:100738004260C4685F000322BA40D24314408D6807
:10074800BD402543C5604C68022C01D0122C13D142
:10075800DD08083550F825E003F007044FEA840C5B
:100768000F2404FA0CF42EEA040E0C6904FA0CF4B3
:1007780044EA0E0440F82540046822404C6804F01E
:100788000304BC40224302604A6812F0805FAAD08A
:10079800002201921C4A546C44F480445464526C04
:1007A80002F480420192019A9C08A51C144A52F84E
:1007B800257003F0030295000F22AA4027EA0207DA
:1007C800124A90423FF45BAF02F5806290420ED02D
:1007D80002F5806290420CD002F5806290420AD005
:1007E80002F5806290423FF448AF072248E70122B1
:1007F80046E7022244E7032242E703B0F0BD704710
:1008080000380140003C014000380240000002402E
:1008180008B5054B5B69034200D108BD024B58611E
:1008280001F05CF9F9E700BF003C014003685A6930
:1008380012F4806F11D06FF480625A610023036351
:10084800202280F83D2080F83E30026C42F00402FD
:10085800026480F83C300120704700207047F8B5EA
:1008680006460C4617461D4622E0FFF77BFE069B10
:10087800C01AA84200D8DDB900233363202286F8C5
:100888003D2086F83E30326C42F02002326486F811
:100898003C3001201AE033685B6924EA03039BB209
:1008A800B3FA83F35B099F420FD1B5F1FF3FDCD167
:1008B800C4F30743012BEED033689B6924EA030392
:1008C8009BB2B3FA83F35B09EDE70020F8BDF8B5F6
:1008D80004460D4616461F463CE01A6842F400726C
:1008E8001A6023686FF480625A6100232363202210
:1008F80084F83D2084F83E30226C42F004022264E1
:1009080084F83C30012033E0FFF72CFEC01BB042D6
:1009180000D8FEB900232363202284F83D2084F800
:100928003E30226C42F02002226484F83C300120E0
:100938001EE023685B6925EA03039BB2003318BFF6
:100948000123A3B123685A6912F4806FC5D1B6F1A7
:10095800FF3FD9D1C5F30743012BEAD023689B6930
:1009680025EA03039BB2003318BF0123E9E70020FF
:10097800F8BD0000F0B583B004460F4615461E4684
:10098800C36A082B0DD0012B0BD013F5803F08D07C
:10099800036B122B0AD10268136843F48073136047
:1009A80004E02268136843F48073136000962B46B2
:1009B80000224FF001112046FFF751FF58B123687C
:1009C8001B6813F4807F2BD04FF400732364032338
:1009D800184603B0F0BD2369B3F5804F0ED12368E4
:1009E80007F0FE071F6133462A460F492046FFF7E6
:1009F8006EFF03460028EBD00123E9E7FB112268CC
:100A080003F0060343F0F003136133462A4607490F
:100A18002046FFF75CFF28B92368FFB21F61E2E7B1
:100A28000323D5E70123D3E70200010008000100F2
:100A380070B504460D46164623685B6913F0800FAF
:100A48001CD12046FFF7F2FED0B9B5F1FF3FF3D035
:100A5800FFF788FD801BA84201D8002DECD10023A8
:100A68002363202284F83D2084F83E30226C42F033
:100A78002002226484F83C30012000E0002070BD90
:100A88000120FCE770B504460D46164623685B69ED
:100A980013F0040F1CD12046FFF7C8FED0B9B5F1FA
:100AA800FF3FF3D0FFF75EFD801BA84201D8002D61
:100AB800ECD100232363202284F83D2084F83E30C3
:100AC800226C42F02002226484F83C30012000E0CD
:100AD800002070BD0120FCE7002800F0C880F8B5B0
:100AE800044690F83D30002B75D0242384F83D301F
:100AF8002268136823F0010313602268136843F423
:100B0800004313602268136823F40043136000F065
:100B180077FC6268584B9A4262D8584B98428CBF0F
:100B280000230123002B40F0A480554BA3FB002396
:100B38009B0C21684A6822F03F021A434A602568E4
:100B48002A6A22F03F0266684B498E424ED801332A
:100B580013432B622568E96921F44F4121F0FF0115
:100B68006368454A93424BD801385B00B0FBF3F306
:100B78000133C3F30B03042B38BF04230B43EB618E
:100B880021680B6823F0C003E269206A024313431B
:100B98000B6021688B6823F4034323F0FF03226969
:100BA800E068024313438B602168CB6823F0FF039E
:100BB8006269A06902431343CB602268136843F05B
:100BC8000103136000202064202384F83D30206353
:100BD80084F83E00F8BD80F83C3000F0B5FE84E7AC
:100BE800284B98428CBF002301239BE74FF4967152
:100BF80001FB03F32449A1FB03139B090133A7E776
:100C0800A268BAB9461E03EB4307B6FBF7F60136EE
:100C1800C6F30B06B6FA86F6760936BBC2B90138B2
:100C280003EB4303B0FBF3F30133C3F30B0242F4CA
:100C38000043A3E7461E03EB830707EB8707B6FBD2
:100C4800F7F60136C6F30B06B6FA86F67609E4E738
:100C5800013803EB830303EB8303B0FBF3F20132A8
:100C6800C2F30B0242F4404388E7012386E70120E0
:100C780070470120AEE700BFA08601007F841E00F8
:100C880083DE1B43FF083D00D34D62102DE9F04180
:100C980084B004460E4690461F46FFF763FC94F85E
:100CA8003D30DBB2202B04D00226304604B0BDE82C
:100CB800F08105460090192301224F492046FFF78D
:100CC800CEFD002840F0918094F83C30012B00F0D4
:100CD8008E80012384F83C3023681A6812F0010FD3
:100CE80003D11A6842F001021A602268136823F4DB
:100CF80000631360212384F83D30102384F83E30CC
:100D080000232364C4F824806785638D23853B4BC7
:100D1800E3622B460A9A31462046FFF72BFE064629
:100D2800002866D10023039323685A6903929B69BC
:100D38000393039B12E0236C042B01D00126B4E734
:100D48002268136843F4007313600126ADE72A464E
:100D58000A992046FFF796FE00282CD1238D002BF8
:100D680035D02A460A992046FFF762FE0028E2D1CC
:100D7800626A236812781A61616A4B1C6362638D28
:100D8800013B9BB26385238D013B9BB2238522687F
:100D9800506910F0040FDAD0002BD8D04B781361CB
:100DA800636A01336362638D013B9BB26385238D64
:100DB800013B2385CBE7236C042B01D0012674E784
:100DC8002268136843F40073136001266DE72268F4
:100DD800136843F400731360202384F83D30002324
:100DE80084F83E3084F83C305FE702265DE702264F
:100DF8005BE7012659E700BF020010000000FFFF73
:100E0800002800F0E48170B582B00446036813F04E
:100E1800010F3BD0A74B9B6803F00C03042B2CD08D
:100E2800A44B9B6803F00C03082B21D06368B3F52F
:100E3800803F4FD0B3F5A02F52D09E4B1A6822F4B2
:100E480080321A601A6822F480221A606368002BC4
:100E580050D0FFF787FB0546964B1B6813F4003FFD
:100E680014D1FFF77FFB401B6428F5D90320B3E1B9
:100E7800904B5B6813F4800FD8D08E4B1B6813F42B
:100E8800003F03D06368002B00F0A381236813F0B0
:100E9800020F55D0874B9B6813F00C0F3ED0854B43
:100EA8009B6803F00C03082B33D0E368002B68D051
:100EB800814B01221A60FFF755FB05467D4B1B68E5
:100EC80013F0020F54D1FFF74DFB401B0228F5D950
:100ED800032081E1774A136843F480331360B5E750
:100EE800744B1A6842F480221A601A6842F48032FD
:100EF8001A60ABE7FFF736FB05466E4B1B6813F429
:100F0800003FC3D0FFF72EFB401B6428F5D9032010
:100F180062E1684B5B6813F4800FC6D1654B1B68B0
:100F280013F0020F04D0E368012B01D0012053E134
:100F3800604A136823F0F803216943EAC103136088
:100F4800236813F0080F40D0636963B35B4B012239
:100F58001A60FFF707FB0546564B5B6F13F0020F4D
:100F680033D1FFF7FFFA401B0228F5D9032033E1FC
:100F7800504A136823F0F803216943EAC103136058
:100F8800DEE74D4B00221A60FFF7ECFA0546494BA5
:100F98001B6813F0020FD3D0FFF7E4FA401B0228B6
:100FA800F5D9032018E1454B00221A60FFF7DAFA59
:100FB8000546404B5B6F13F0020F06D0FFF7D2FADD
:100FC800401B0228F5D9032006E1236813F0040F1B
:100FD80079D0384B1B6C13F0805F33D10023019319
:100FE800344B1A6C42F080521A641B6C03F0805325
:100FF8000193019B0125324B1B6813F4807F23D09A
:10100800A368012B34D0052B38D02A4B1A6F22F055
:1010180001021A671A6F22F004021A67A368002BEC
:1010280036D0FFF79FFA0646224B1B6F13F0020FCC
:1010380048D1FFF797FA801B41F288339842F3D9D9
:101048000320C9E00025D6E71D4A136843F48073DE
:101058001360FFF787FA0646194B1B6813F4807F65
:10106800CED1FFF77FFA801B0228F5D90320B3E021
:10107800104A136F43F001031367CFE70D4B1A6F44
:1010880042F004021A671A6F42F001021A67C5E7B4
:10109800FFF768FA0646074B1B6F13F0020F11D0D3
:1010A800FFF760FA801B41F288339842F3D9032096
:1010B80092E000BF0038024000004742800E4742DD
:1010C80000700040EDB9A369002B00F08480454A08
:1010D800926802F00C02082A51D0022B17D0424B1A
:1010E80000221A60FFF73EFA04463E4B1B6813F0D5
:1010F800007F42D0FFF736FA001B0228F5D90320FB
:101108006AE0384A136C23F080531364DBE7364BEC
:1011180000221A60FFF726FA0546324B1B6813F0C7
:10112800007F06D0FFF71EFA401B0228F5D90320DE
:1011380052E0E369226A1343626A43EA8213A26AAD
:101148005208013A43EA0243E26A43EA0263254A43
:101158005360254B01221A60FFF704FA0446214B1D
:101168001B6813F0007F06D1FFF7FCF9001B02286B
:10117800F5D9032030E000202EE000202CE0012BE0
:101188002CD0184B5B6803F48001E269914201D0CE
:10119800012021E003F03F02216A8A4201D00120A8
:1011A8001AE0616A47F6C0721A408A4201D00120EB
:1011B80012E003F44032A16A8A4201D001200BE018
:1011C80003F07063E26A93420AD0012004E0012030
:1011D8007047012000E0002002B070BD0120FBE74D
:1011E8000020F9E70038024060004742264B9B6820
:1011F80003F00C03042B44D0082B01D0234870477C
:101208002DE9F04B204B5A6802F03F025B6813F45B
:10121800800F13D01C4B5968C1F3881100231C4858
:10122800A1FB0001FEF7D4FF174B5B68C3F3014332
:1012380001335B00B0FBF3F0BDE8F08B124B5B6849
:10124800C3F388131E4600275C010025E41A65EBEA
:101258000705A90141EA9461A001001B61EB0501A2
:10126800CB0043EA5073C400A01943EB07018B027B
:1012780043EA90538402204619460023FEF7A8FF4C
:10128800D2E70348704700BF003802400024F4004A
:1012980040787D01002800F09E8070B50446504BD0
:1012A8001B6803F00F038B4209D2CBB24C4A137070
:1012B800136803F00F038B4201D0012070BD23682F
:1012C80013F0020F17D013F0040F04D0454A9368A7
:1012D80043F4E0539360236813F0080F04D0414AA5
:1012E800936843F4604393603E4A936823F0F003A5
:1012F800A068034393600D46236813F0010F32D0B2
:101308006368012B21D09A1E012A25D9354A126813
:1013180012F0020F61D033498A6822F003021343A6
:101328008B60FFF71FF906462E4B9B6803F00C03F2
:101338006268B3EB820F16D0FFF714F9801B41F2F5
:1013480088339842F0D90320B8E7264A126812F485
:10135800003FE0D10120B1E7224A126812F0007F75
:10136800D9D10120AAE71E4B1B6803F00F03AB423B
:1013780009D9EAB21A4B1A701B6803F00F03AB4283
:1013880001D001209AE7236813F0040F06D0154A0C
:10139800936823F4E053E1680B439360236813F0E8
:1013A800080F07D00F4A936823F46043216943EA82
:1013B800C1039360FFF71AFF0A4B9B68C3F303133B
:1013C800094AD35CD840094B1860094B1868FFF7E5
:1013D8007FF8002072E70120704701206EE700BF08
:1013E800003C024000380240BC21000814000020E4
:1013F80004000020014B1868704700BF140000204B
:1014080008B5FFF7F7FF044B9B68C3F38223034A31
:10141800D35CD84008BD00BF00380240CC2100088A
:1014280010B4036A046A24F001040462846924F095
:10143800F00444EA021223F00A030B4382610362B8
:101448005DF8044B704710B4036A23F0100303627D
:101458008469036A24F4704444EA023223F0A00346
:1014680043EA0113826103625DF8044B70478368A5
:1014780023F07003194341F0070181607047026847
:10148800D36843F00103D3600268936803F007034D
:10149800062B03D0136843F0010313600020704744
:1014A8000268D36823F00103D3600368196A41F224
:1014B8001112114208D1196A40F24442114203D173
:1014C8001A6822F001021A600020704770477047BE
:1014D8007047704710B5044603681A6912F0020F86
:1014E80011D0DA6812F0020F0DD06FF002021A6103
:1014F8000123037703689B6913F0030F70D0FFF78C
:10150800E6FF0023237723681A6912F0040F12D02C
:10151800DA6812F0040F0ED06FF004021A61022389
:10152800237723689B6913F4407F5FD02046FFF739
:10153800CEFF0023237723681A6912F0080F12D010
:10154800DA6812F0080F0ED06FF008021A6104234F
:1015580023772368DB6913F0030F4ED02046FFF78B
:10156800B6FF0023237723681A6912F0100F12D0F0
:10157800DA6812F0100F0ED06FF010021A6108230B
:1015880023772368DB6913F4407F3DD02046FFF7BB
:101598009EFF0023237723681A6912F0010F03D0F6
:1015A800DA6812F0010F36D123681A6912F0800F39
:1015B80003D0DA6812F0800F34D123681A6912F068
:1015C800400F03D0DA6812F0400F32D123681A694D
:1015D80012F0200F03D0DA6812F0200F30D110BDBE
:1015E800FFF774FF2046FFF773FF8AE72046FFF7EF
:1015F8006DFF2046FFF76CFF9BE72046FFF766FF6D
:101608002046FFF765FFACE72046FFF75FFF20465F
:10161800FFF75EFFBDE76FF001021A61204600F098
:10162800A9FAC1E76FF080021A61204600F02DF98F
:10163800C3E76FF040021A612046FFF74AFFC5E78B
:101648006FF020021A61204600F01EF9C7E700007B
:101658000368254A90420ED0B0F1804F0BD0A2F516
:101668007C42904207D002F58062904203D002F596
:101678008062904203D123F070034A6813431A4AE8
:1016880090421AD0B0F1804F17D0A2F57C42904218
:1016980013D002F5806290420FD002F5806290422A
:1016A8000BD002F59A32904207D002F58062904240
:1016B80003D002F58062904203D123F44073CA68D4
:1016C800134323F080034A69134303608B68C362A2
:1016D8000B688362044B984202D001234361704730
:1016E8000B690363F9E700BF00000140A8B110B51A
:1016F800044690F83D305BB1022384F83D30211D4B
:101708002068FFF7A5FF012384F83D30002010BDB5
:1017180080F83C3000F098FCEEE70120704710B4E8
:10172800846824F47F4442EA03230B432343836001
:101738005DF8044B704790F83C30012B66D010B52B
:101748000446012380F83C30022380F83D300268CB
:10175800936823F47F4323F0770393600B68402B4F
:101768004AD013D9602B3DD01ED9702B28D0B3F5A1
:10177800005F30D1CB684A6889680068FFF7CFFFFF
:101788002268936843F48043936024E0102B06D0CA
:1017980004D9202B03D0302B01D01CE0DBB919462B
:1017A8002068FFF764FE16E0502B14D1CA68496818
:1017B8000068FFF735FE50212068FFF758FE0AE061
:1017C800CB684A6889680068FFF7A9FF22689368B0
:1017D80043F077039360012384F83D30002084F8B8
:1017E8003C0010BDCA6849680068FFF72CFE6021FC
:1017F8002068FFF73CFEEEE7CA6849680068FFF713
:101808000FFE40212068FFF732FEE4E70220704710
:1018180090F83C30012B33D030B4012380F83C30B1
:10182800022380F83D3003685C689D6824F07004EA
:101838000A6822435A600368124A934212D0B3F1ED
:10184800804F0FD0A2F57C4293420BD002F5806204
:10185800934207D002F58062934203D002F59A3290
:10186800934204D125F080054A6815439D60012301
:1018780080F83D30002380F83C30184630BC704773
:1018880002207047000001407047704710B588B0CB
:101898000024069407940094194B1A6B42F08002B6
:1018A8001A631A6B02F080020092009A01941A6B74
:1018B80042F008021A631A6B02F008020192019AB8
:1018C80002941A6B42F002021A631B6B03F00203C4
:1018D8000293029B4FF4E05303930A4B04930123B2
:1018E800059303A90848FEF7C1FE22462146282091
:1018F800FEF764FE2820FEF795FE08B010BD00BF75
:101908000038024000001110000C024008B50B48D6
:101918000B4B03600B4B436000238360C3604FF4A1
:101928008042026143618361C3610362FFF7D4F8B7
:1019380000B908BD00F092FAFBE700BF3C000020A8
:1019480000540040A086010030B589B000230393FD
:1019580004930593069307930268144B9A4201D0A7
:1019680009B030BD00250195114C236B43F00203EB
:101978002363236B03F002030193019BC0230393AA
:1019880012230493032306930423079303A9094806
:10199800FEF76CFE0295236C43F400132364236C5A
:1019A80003F400130293029BDAE700BF00540040DF
:1019B800003802400004024010B584B021F00F0343
:1019C800134343F004038DF80C3021F00F035BB28E
:1019D80054B223438DF80D3009010A4342F0040242
:1019E8008DF80E2021438DF80F10642300930423F3
:1019F80003AA01460348FFF749F90520FEF7B8FD99
:101A080004B010BD3C00002008B590F823302BB17D
:101A1800082201210078FFF7CFFF08BD0022F8E770
:101A280038B5044690F8233033B308252820FEF74C
:101A38009FFD2A4630212078FFF7BEFF0520FEF7DC
:101A480097FD2A4630212078FFF7B6FF0120FEF7E0
:101A58008FFD2A4630212078FFF7AEFF2A46022163
:101A68002078FFF7A9FF2A460C212078FFF7A4FF6A
:101A78002046FFF7C9FF38BD0025D7E770B50546F2
:101A880090F8233053B900262846FFF7BDFF3246A9
:101A980080212878FFF790FF002408E00826F3E764
:101AA80046F001022878FFF787FF0134E4B22B19CA
:101AB80059780029F4D13246C0212878FFF77CFFF5
:101AC800002406E046F001022878FFF775FF01348C
:101AD800E4B22B19997C0029F4D170BD08B5B0F592
:101AE800806F07D0B0F5006F17D0B0F5805F27D0B2
:101AF80000BF08BD1C4B1B78002BF3D01A4B0022EB
:101B08001A701A4B4FF480621A80194803686FF0F4
:101B180001021A61FFF7B3FCEBE7134B1B78002BAC
:101B2800E3D0114B00221A70104B4FF400621A8058
:101B38000F4803686FF001021A61FFF7A0FCD8E7AD
:101B4800094B1B78002BD3D0074B00221A70074B88
:101B58004FF480521A80064803686FF001021A6138
:101B6800FFF78DFCC5E700BF0800002090000020AB
:101B78003801002010B504464C48FFF791FC4C4B47
:101B88001B78DBB922684B4B9A4200D010BD4A4BF8
:101B98001B88B3F5806FF9D1454B00225A70012498
:101BA8001C70464803686FF001021A61FFF767FC72
:101BB800434B1C703D48FFF773FCE7E7012B19D036
:101BC800032B24D0042B4DD0022BDFD12268394BB4
:101BD8009A42DBD1384B1B88B3F5806FD6D1344B92
:101BE80000225A701A70364B01221A702F48FFF7DC
:101BF80057FCCBE72268334B9A42C7D12C4B0022C3
:101C08005A7003221A702D48FFF74AFCBEE7226873
:101C1800284B9A42BAD1284B1B88B3F5006F0ED0D7
:101C2800B3F5805FB2D1224B00225A7002221A709B
:101C3800234B01221A701D48FFF732FCA6E71C4B04
:101C480000225A7004221A701C4803686FF00102BF
:101C58001A61FFF714FC1A4B01221A701348FFF798
:101C68001FFC93E72368174A934215D0114A934201
:101C78008CD1114B1B88B3F5806F87D10F48FFF7C4
:101C88000FFC0B4B00225A701A700D4B01221A7070
:101C98000648FFF705FC79E7054B00225A70022237
:101CA8001A700648FFF7FCFB70E700BF38010020F8
:101CB800340000200000014090000020F8000020BF
:101CC80008000020000C004030B595B030220021FB
:101CD80008A800F05BFA0024039404940594069481
:101CE800079401941B4B1A6C42F080521A641B6CC7
:101CF80003F080530193019B0294174B1A6842F436
:101D080040421A601B6803F440430293029B01237C
:101D180008934FF48033099302250E954FF48003FE
:101D28000F930C231093602311931295042313939C
:101D380008A8FFF765F80F230393049505944FF45B
:101D4800805306930794032103A8FFF7A3FA15B05D
:101D580030BD00BF003802400070004008B5FEF7F3
:101D6800DBFBFFF7B1FFFFF791FDFFF7CFFD00F0B9
:101D78004DF900F0CDF800F00BF92F4B00221A7046
:101D88002E484E230370012380F82330FFF748FEC6
:101D98000AE02B4B2B4A106818602B4A1068C3F8CE
:101DA8001100581EFFF76AFE234B1B78002BF0D05A
:101DB800022B18D0012B24D0032B2FD0042BF3D1C6
:101DC8001F4B224A1068186092889A80204A10682F
:101DD800C3F8110090889279A3F81500DA75581E97
:101DE800FFF74CFEE0E7164B1A4A106818601279A4
:101DF8001A71154A1068C3F81100581EFFF73EFE05
:101E0800D2E70F4B144A03CA186059600E4A10688B
:101E1800C3F81100581EFFF731FEC5E7084B0B4AFF
:101E28001068186092889A80074A1068C3F81100F1
:101E3800581EFFF723FEB7E7340000209400002067
:101E480095000020D4210008D8210008EC210008C2
:101E5800F4210008DC210008E42100087047000094
:101E680082B0002100910B4B5A6C42F480425A64B4
:101E78005A6C02F480420092009A01911A6C42F066
:101E880080521A641B6C03F080530193019B02B0CB
:101E9800704700BF003802407047FEE7FEE7FEE7E4
:101EA800FEE770477047704708B5FEF74FFB08BD5F
:101EB80008B50348FFF70EFB0248FFF70BFB08BD08
:101EC80038010020B800002008B54FF48060FEF704
:101ED8009FFC4FF40060FEF79BFC4FF48050FEF728
:101EE80097FC08BD08B50248FFF7F4FA08BD00BF23
:101EF800F8000020054BD3F8882042F47002C3F89C
:101F080088204FF000629A60704700BF00ED00E043
:101F180000B587B0002302930393049305930093BD
:101F280001931948194A026042F20F7242608360B5
:101F38004FF49672C260036143618361FFF7D6FB79
:101F4800C0B906A94FF4805341F8103D0E48FFF779
:101F5800F2FB90B900230093019369460A48FFF702
:101F680057FC68B9084B1B686FF001021A6107B08B
:101F78005DF804FBFFF772FFE3E7FFF76FFFE9E7A0
:101F8800FFF76CFFEEE700BF3801002000000140BA
:101F980000B587B00023029303930493059300933D
:101FA80001931848184A026042F20F724260836037
:101FB80047F22F52C26003618361FFF797FBC0B9F4
:101FC80006A94FF4805341F8103D0E48FFF7B3FBC4
:101FD80090B900230093019369460A48FFF718FC5B
:101FE80068B9084B1B686FF001021A6107B05DF809
:101FF80004FBFFF733FFE3E7FFF730FFE9E7FFF7FD
:102008002DFFEEE7F8000020000C004008B50C4852
:102018000C4B036042F20F734360002383604CF261
:102028005032C26003618361FFF760FB28B9044B3B
:102038001B686FF001021A6108BDFFF70FFFF6E792
:10204800B80000200044014000B585B00368244A68
:10205800934208D0234A934219D0234A93422AD064
:1020680005B05DF804FB00210191204B5A6C42F049
:1020780001025A645B6C03F001030193019B0A4659
:102088001920FEF79BFA1920FEF7CCFAE8E70021A1
:102098000291164B1A6C42F008021A641B6C03F08A
:1020A80008030293029B0A463220FEF787FA322081
:1020B800FEF7B8FAD4E7002103910C4B5A6C42F4AE
:1020C80000325A645B6C03F400330393039B0A46A3
:1020D8001920FEF773FA1920FEF7A4FAC0E700BF2B
:1020E80000000140000C004000440140003802405C
:1020F800DFF834D0002103E00C4B5B584350043127
:102108000B480C4B42189A42F6D30B4A02E00023C4
:1021180042F8043B094B9A42F9D3FFF7EBFE00F073
:1021280011F8FFF71BFE7047000002200C22000880
:10213800000000201800002018000020780100206E
:10214800FEE7000070B50D4E0D4CA41BA410002531
:10215800A54209D10B4E0C4C00F020F8A41BA4108A
:102168000025A54205D170BD56F8253098470135A0
:10217800EEE756F8253098470135F2E704220008C3
:10218800042200080422000808220008024403462A
:10219800934200D1704703F8011BF9E7F8B500BF77
:1021A800F8BC08BC9E467047F8B500BFF8BC08BC30
:0421B8009E46704788
:1021BC0000000000000000000102030406070809EB
:1021CC0000000000010203044F46460020202000BE
:1021DC004C4F55440000000054494D4531307300BC
:1021EC00524541445900000028646F6F7229000069
:0821FC000CE0FF7F0100000070
:04220400BD01000810
:042208009901000830
:10220C000100000010000000010000002D2D2D2DFC
:08221C00303030300024F400E2
:04000005080020F9D6
:00000001FF
