:020000040800F2
:10000000000002206D2800089D2500089F2500089B
:10001000A1250008A3250008A52500080000000070
:10002000000000000000000000000000A7250008FC
:10003000A925000800000000AB250008AD25000838
:10004000BD280008BD280008BD280008BD280008FC
:10005000BD280008BD280008B5250008BF250008F8
:10006000C9250008D3250008DD250008BD280008A3
:10007000BD280008BD280008BD280008BD280008CC
:10008000BD280008BD280008BD28000800000000A9
:10009000000000000000000000000000E72500084C
:1000A000BD2800080D260008BD280008BD2800084E
:1000B000BD280008BD280008BD280008BD2800088C
:1000C000BD280008BD280008BD280008BD2800087C
:1000D000BD280008BD280008BD2800080000000059
:1000E00025260008BD280008BD28000800000000E3
:1000F000000000000000000000000000BD28000813
:1001000000000000BD28000841260008BD280008A6
:1001100000000000000000000000000000000000DF
:10012000BD280008BD280008BD280008BD2800081B
:10013000BD280008000000000000000000000000D2
:10014000000000000000000000000000BD280008C2
:10015000BD280008BD280008BD280008BD280008EB
:10016000BD280008BD2800080000000000000000B5
:10017000000000000000000000000000000000007F
:1001800000000000BD280008000000000000000082
:08019000BD280008BD2800088D
:1001A00010B5054C237833B9044B13B10448AFF3B1
:1001B00000800123237010BD7C000020000000009F
:1001C0005C31000808B5034B1BB103490348AFF38A
:1001D000008008BD00000000800000205C310008A5
:1001E00053B94AB9002908BF00281CBF4FF0FF319E
:1001F0004FF0FF3000F072B9ADF1080C6DE904CE9C
:1002000000F006F8DDF804E0DDE9022304B07047F1
:100210002DE9F047089E04468846002B4BD18A42C0
:10022000154667D9B2FA82F24AB1C2F1200701FA43
:1002300002F320FA07F7954047EA030894404FEA93
:10024000154E230CB8FBFEF71FFA85FC0EFB178832
:1002500043EA084307FB0CF1994209D9EB1807F16F
:10026000FF3080F01B81994240F21881023F2B44FD
:100270005B1AA4B2B3FBFEF00EFB103344EA034456
:1002800000FB0CFCA44509D92C1900F1FF3380F0C8
:100290000781A44540F2048102382C4440EA07401B
:1002A000A4EB0C0400271EB1D4400023C6E9004390
:1002B0003946BDE8F0878B4209D9002E00F0EB806B
:1002C0000027C6E9000138463946BDE8F087B3FA91
:1002D00083F7002F47D18B4202D3824200F2FA808B
:1002E000841A61EB030301209846002EE0D0C6E992
:1002F0000048DDE702B9FFDEB2FA82F2002A40F0E0
:100300008F80491B4FEA154E1FFA85F80127B1FB74
:10031000FEFC230C0EFB1C1143EA014308FB0CF10D
:10032000994207D9EB180CF1FF3002D2994200F242
:10033000CD808446591AA3B2B1FBFEF00EFB101417
:1003400043EA044408FB00F8A04507D92C1900F142
:10035000FF3302D2A04500F2B6801846A4EB080491
:1003600040EA0C409FE7C7F1200CBB4022FA0CFE8C
:100370004EEA030E01FA07F420FA0CF521FA0CF309
:100380004FEA1E482543B3FBF8F92C0C08FB193340
:100390001FFA8EFA44EA034309FB0AF49C4202FA6C
:1003A00007F200FA07F10BD91EEB030309F1FF3046
:1003B00080F087809C4240F28480A9F10209734456
:1003C0001B1BADB2B3FBF8F008FB103345EA034446
:1003D00000FB0AFAA24508D91EEB040400F1FF3322
:1003E0006BD2A24569D90238744440EA0940A0FBA7
:1003F0000289A4EB0A044C45C2464B4654D351D063
:10040000002E69D0B1EB0A0564EB030404FA0CFC7E
:10041000FD40FC404CEA0505C6E90054002747E7CB
:10042000C2F1200320FA03F7954001FA02F021FA05
:1004300003F34FEA154E3843010CB3FBFEF71FFAE6
:1004400085F80EFB173341EA034107FB08F38B42A3
:1004500004FA02F407D9691807F1FF3C2FD28B4246
:100460002DD9023F2944CB1A81B2B3FBFEF00EFB1B
:10047000103341EA034100FB08F38B4207D96918A6
:1004800000F1FF3C17D28B4215D902382944C91A12
:1004900040EA07473BE73746304609E70746E7E6C5
:1004A0001846FBE64145ABD2B8EB020A69EB0E02F7
:1004B00001381346A4E76046E9E7184695E7674622
:1004C000D1E781467CE702382C4447E7ACF1020CC7
:1004D0002B442FE7384608E73746E9E6704700BF68
:1004E00001F0FF01102A2BDB10F0070F08D010F8E5
:1004F000013B013A8B422DD010F0070F42B3F6D1E9
:10050000F0B441EA012141EA014122F007047FF001
:1005100000070023F0E80256083C85EA010586EA58
:10052000010685FA47F5A3FA87F586FA47F6A5FA94
:1005300087F68EB9EED1F0BC01F0FF0102F00702A0
:1005400032B110F8013B013A83EA010313B1F8D14B
:100550000020704701387047002D06BF354603382C
:10056000073815F0010F07D1013015F4807F02BF65
:10057000013015F4C03F0130F0BC0138704700BFB6
:1005800010B504460E4B18784FF47A73B3FBF0F3B2
:100590000C4A1068B0FBF3F000F0AAF868B90F2C11
:1005A00001D901200AE0002221464FF0FF3000F07F
:1005B0005DF8034B5C60002000E0012010BD00BF2F
:1005C000000000201400002008B50B4B1A6842F40C
:1005D00000721A601A6842F480621A601A6842F463
:1005E00080721A60032000F02FF80020FFF7C8FF88
:1005F00001F0B8FF002008BD003C0240034A11682A
:10060000034B1B780B441360704700BFAC00002005
:1006100000000020014B1868704700BFAC000020AC
:1006200038B50446FFF7F6FF0546B4F1FF3F02D0A8
:10063000044B1B781C44FFF7EDFF401BA042FAD38C
:1006400038BD00BF00000020074AD36823F4E063F0
:100650001B041B0C000200F4E060184340F0BF6074
:1006600040F40030D060704700ED00E030B4174B2C
:10067000DB68C3F30223C3F10704042C28BF04245E
:100680001D1D062D18D9033B4FF0FF3505FA04F464
:1006900021EA0401994005FA03F322EA030319430E
:1006A00000280BDB0901C9B200F1604000F5614090
:1006B00080F8001330BC70470023E5E700F00F001E
:1006C0000901C9B2024B1954F4E700BF00ED00E084
:1006D00014ED00E0002807DB00F01F0240090123B1
:1006E0009340024A42F82030704700BF00E100E02A
:1006F0000138B0F1807F0AD2064B5860064AF021DB
:1007000082F823100020986007221A6070470120A9
:10071000704700BF10E000E000ED00E000230F2B69
:1007200000F2C580F0B583B039E0042200E0002279
:10073000AA403A4302345E4D45F824205D4A1468CD
:10074000F24302EA04054F6817F4803F01D046EAFD
:100750000405584C2560646802EA04054F6817F4E4
:10076000003F01D046EA0405524C6560A46802EAE5
:1007700004054F6817F4801F01D046EA04054D4C6C
:10078000A560E46822404D6815F4001F01D046EAD8
:100790000402484CE26001330F2B00F286800122F4
:1007A0009A400C6804EA0206B242F4D14C68651E15
:1007B000012D03D9112C01D0122C12D185685F00B4
:1007C0000324BC4025EA0405CC68BC402C4384606B
:1007D000456825EA02054C68C4F300129A402A4392
:1007E0004260C4685F000322BA40D24314408D685F
:1007F000BD402543C5604C68022C01D0122C13D19A
:10080000DD08083550F825E003F007044FEA840CB2
:100810000F2404FA0CF42EEA040E0C6904FA0CF40A
:1008200044EA0E0440F82540046822404C6804F075
:100830000304BC40224302604A6812F0805FAAD0E1
:10084000002201921C4A546C44F480445464526C5B
:1008500002F480420192019A9C08A51C144A52F8A5
:10086000257003F0030295000F22AA4027EA020731
:10087000124A90423FF45BAF02F5806290420ED084
:1008800002F5806290420CD002F5806290420AD05C
:1008900002F5806290423FF448AF072248E7012208
:1008A00046E7022244E7032242E703B0F0BD704767
:1008B00000380140003C0140003802400000024086
:1008C00008B5054B5B69034200D108BD024B586176
:1008D00001F08CF9F9E700BF003C014003685A6958
:1008E00012F4806F11D06FF480625A6100230363A9
:1008F000202280F83D2080F83E30026C42F0040255
:10090000026480F83C300120704700207047F8B541
:1009100006460C4617461D4622E0FFF77BFE069B67
:10092000C01AA84200D8DDB900233363202286F81C
:100930003D2086F83E30326C42F02002326486F868
:100940003C3001201AE033685B6924EA03039BB260
:10095000B3FA83F35B099F420FD1B5F1FF3FDCD1BE
:10096000C4F30743012BEED033689B6924EA0303E9
:100970009BB2B3FA83F35B09EDE70020F8BDF8B54D
:1009800004460D4616461F463CE01A6842F40072C3
:100990001A6023686FF480625A6100232363202267
:1009A00084F83D2084F83E30226C42F00402226438
:1009B00084F83C30012033E0FFF72CFEC01BB0422E
:1009C00000D8FEB900232363202284F83D2084F858
:1009D0003E30226C42F02002226484F83C30012038
:1009E0001EE023685B6925EA03039BB2003318BF4E
:1009F0000123A3B123685A6912F4806FC5D1B6F1FF
:100A0000FF3FD9D1C5F30743012BEAD023689B6987
:100A100025EA03039BB2003318BF0123E9E7002056
:100A2000F8BD0000F0B583B004460F4615461E46DB
:100A3000C36A082B0DD0012B0BD013F5803F08D0D3
:100A4000036B122B0AD10268136843F4807313609E
:100A500004E02268136843F48073136000962B4609
:100A600000224FF001112046FFF751FF58B12368D3
:100A70001B6813F4807F2BD04FF40073236403238F
:100A8000184603B0F0BD2369B3F5804F0ED123683B
:100A900007F0FE071F6133462A460F492046FFF73D
:100AA0006EFF03460028EBD00123E9E7FB11226823
:100AB00003F0060343F0F003136133462A46074967
:100AC0002046FFF75CFF28B92368FFB21F61E2E709
:100AD0000323D5E70123D3E702000100080001004A
:100AE00070B504460D46164623685B6913F0800F07
:100AF0001CD12046FFF7F2FED0B9B5F1FF3FF3D08D
:100B0000FFF788FD801BA84201D8002DECD10023FF
:100B10002363202284F83D2084F83E30226C42F08A
:100B20002002226484F83C30012000E0002070BDE7
:100B30000120FCE770B504460D46164623685B6944
:100B400013F0040F1CD12046FFF7C8FED0B9B5F151
:100B5000FF3FF3D0FFF75EFD801BA84201D8002DB8
:100B6000ECD100232363202284F83D2084F83E301A
:100B7000226C42F02002226484F83C30012000E024
:100B8000002070BD0120FCE7002800F0C880F8B507
:100B9000044690F83D30002B75D0242384F83D3076
:100BA0002268136823F0010313602268136843F47A
:100BB000004313602268136823F40043136000F0BD
:100BC00077FC6268584B9A4262D8584B98428CBF67
:100BD00000230123002B40F0A480554BA3FB0023EE
:100BE0009B0C21684A6822F03F021A434A6025683C
:100BF0002A6A22F03F0266684B498E424ED8013382
:100C000013432B622568E96921F44F4121F0FF016C
:100C10006368454A93424BD801385B00B0FBF3F35D
:100C20000133C3F30B03042B38BF04230B43EB61E5
:100C300021680B6823F0C003E269206A0243134372
:100C40000B6021688B6823F4034323F0FF032269C0
:100C5000E068024313438B602168CB6823F0FF03F5
:100C60006269A06902431343CB602268136843F0B2
:100C70000103136000202064202384F83D302063AA
:100C800084F83E00F8BD80F83C3000F0E5FE84E7D3
:100C9000284B98428CBF002301239BE74FF49671A9
:100CA00001FB03F32449A1FB03139B090133A7E7CD
:100CB000A268BAB9461E03EB4307B6FBF7F6013646
:100CC000C6F30B06B6FA86F6760936BBC2B901380A
:100CD00003EB4303B0FBF3F30133C3F30B0242F422
:100CE0000043A3E7461E03EB830707EB8707B6FB2A
:100CF000F7F60136C6F30B06B6FA86F67609E4E790
:100D0000013803EB830303EB8303B0FBF3F20132FF
:100D1000C2F30B0242F4404388E7012386E7012037
:100D200070470120AEE700BFA08601007F841E004F
:100D300083DE1B43FF083D00D34D62102DE9F041D7
:100D400084B004460E4690461F46FFF763FC94F8B5
:100D50003D30DBB2202B04D00226304604B0BDE883
:100D6000F08105460090192301224F492046FFF7E4
:100D7000CEFD002840F0918094F83C30012B00F02B
:100D80008E80012384F83C3023681A6812F0010F2A
:100D900003D11A6842F001021A602268136823F432
:100DA00000631360212384F83D30102384F83E3023
:100DB00000232364C4F824806785638D23853B4B1F
:100DC000E3622B460A9A31462046FFF72BFE064681
:100DD000002866D10023039323685A6903929B6914
:100DE0000393039B12E0236C042B01D00126B4E78C
:100DF0002268136843F4007313600126ADE72A46A6
:100E00000A992046FFF796FE00282CD1238D002B4F
:100E100035D02A460A992046FFF762FE0028E2D123
:100E2000626A236812781A61616A4B1C6362638D7F
:100E3000013B9BB26385238D013B9BB223852268D6
:100E4000506910F0040FDAD0002BD8D04B78136122
:100E5000636A01336362638D013B9BB26385238DBB
:100E6000013B2385CBE7236C042B01D0012674E7DB
:100E70002268136843F40073136001266DE722684B
:100E8000136843F400731360202384F83D3000237B
:100E900084F83E3084F83C305FE702265DE70226A6
:100EA0005BE7012659E700BF020010000000FFFFCA
:100EB000002800F0E48170B582B00446036813F0A6
:100EC000010F3BD0A74B9B6803F00C03042B2CD0E5
:100ED000A44B9B6803F00C03082B21D06368B3F587
:100EE000803F4FD0B3F5A02F52D09E4B1A6822F40A
:100EF00080321A601A6822F480221A606368002B1C
:100F000050D0FFF787FB0546964B1B6813F4003F54
:100F100014D1FFF77FFB401B6428F5D90320B3E110
:100F2000904B5B6813F4800FD8D08E4B1B6813F482
:100F3000003F03D06368002B00F0A381236813F007
:100F4000020F55D0874B9B6813F00C0F3ED0854B9A
:100F50009B6803F00C03082B33D0E368002B68D0A8
:100F6000814B01221A60FFF755FB05467D4B1B683C
:100F700013F0020F54D1FFF74DFB401B0228F5D9A7
:100F8000032081E1774A136843F480331360B5E7A7
:100F9000744B1A6842F480221A601A6842F4803254
:100FA0001A60ABE7FFF736FB05466E4B1B6813F480
:100FB000003FC3D0FFF72EFB401B6428F5D9032068
:100FC00062E1684B5B6813F4800FC6D1654B1B6808
:100FD00013F0020F04D0E368012B01D0012053E18C
:100FE000604A136823F0F803216943EAC1031360E0
:100FF000236813F0080F40D0636963B35B4B012291
:101000001A60FFF707FB0546564B5B6F13F0020FA4
:1010100033D1FFF7FFFA401B0228F5D9032033E153
:10102000504A136823F0F803216943EAC1031360AF
:10103000DEE74D4B00221A60FFF7ECFA0546494BFC
:101040001B6813F0020FD3D0FFF7E4FA401B02280D
:10105000F5D9032018E1454B00221A60FFF7DAFAB0
:101060000546404B5B6F13F0020F06D0FFF7D2FA34
:10107000401B0228F5D9032006E1236813F0040F72
:1010800079D0384B1B6C13F0805F33D10023019370
:10109000344B1A6C42F080521A641B6C03F080537C
:1010A0000193019B0125324B1B6813F4807F23D0F1
:1010B000A368012B34D0052B38D02A4B1A6F22F0AD
:1010C00001021A671A6F22F004021A67A368002B44
:1010D00036D0FFF79FFA0646224B1B6F13F0020F24
:1010E00048D1FFF797FA801B41F288339842F3D931
:1010F0000320C9E00025D6E71D4A136843F4807336
:101100001360FFF787FA0646194B1B6813F4807FBC
:10111000CED1FFF77FFA801B0228F5D90320B3E078
:10112000104A136F43F001031367CFE70D4B1A6F9B
:1011300042F004021A671A6F42F001021A67C5E70B
:10114000FFF768FA0646074B1B6F13F0020F11D02A
:10115000FFF760FA801B41F288339842F3D90320ED
:1011600092E000BF0038024000004742800E474234
:1011700000700040EDB9A369002B00F08480454A5F
:10118000926802F00C02082A51D0022B17D0424B71
:1011900000221A60FFF73EFA04463E4B1B6813F02C
:1011A000007F42D0FFF736FA001B0228F5D9032052
:1011B0006AE0384A136C23F080531364DBE7364B44
:1011C00000221A60FFF726FA0546324B1B6813F01F
:1011D000007F06D0FFF71EFA401B0228F5D9032036
:1011E00052E0E369226A1343626A43EA8213A26A05
:1011F0005208013A43EA0243E26A43EA0263254A9B
:101200005360254B01221A60FFF704FA0446214B74
:101210001B6813F0007F06D1FFF7FCF9001B0228C2
:10122000F5D9032030E000202EE000202CE0012B37
:101230002CD0184B5B6803F48001E269914201D025
:10124000012021E003F03F02216A8A4201D00120FF
:101250001AE0616A47F6C0721A408A4201D0012042
:1012600012E003F44032A16A8A4201D001200BE06F
:1012700003F07063E26A93420AD0012004E0012087
:101280007047012000E0002002B070BD0120FBE7A4
:101290000020F9E70038024060004742264B9B6877
:1012A00003F00C03042B44D0082B01D023487047D3
:1012B0002DE9F04B204B5A6802F03F025B6813F4B3
:1012C000800F13D01C4B5968C1F3881100231C48B0
:1012D000A1FB0001FEF784FF174B5B68C3F30143DA
:1012E00001335B00B0FBF3F0BDE8F08B124B5B68A1
:1012F000C3F388131E4600275C010025E41A65EB42
:101300000705A90141EA9461A001001B61EB0501F9
:10131000CB0043EA5073C400A01943EB07018B02D2
:1013200043EA90538402204619460023FEF758FFF3
:10133000D2E70348704700BF003802400024F400A1
:1013400040787D01002800F09E8070B50446504B27
:101350001B6803F00F038B4209D2CBB24C4A1370C7
:10136000136803F00F038B4201D0012070BD236886
:1013700013F0020F17D013F0040F04D0454A9368FE
:1013800043F4E0539360236813F0080F04D0414AFC
:10139000936843F4604393603E4A936823F0F003FC
:1013A000A068034393600D46236813F0010F32D009
:1013B0006368012B21D09A1E012A25D9354A12686B
:1013C00012F0020F61D033498A6822F003021343FE
:1013D0008B60FFF71FF906462E4B9B6803F00C034A
:1013E0006268B3EB820F16D0FFF714F9801B41F24D
:1013F00088339842F0D90320B8E7264A126812F4DD
:10140000003FE0D10120B1E7224A126812F0007FCC
:10141000D9D10120AAE71E4B1B6803F00F03AB4292
:1014200009D9EAB21A4B1A701B6803F00F03AB42DA
:1014300001D001209AE7236813F0040F06D0154A63
:10144000936823F4E053E1680B439360236813F03F
:10145000080F07D00F4A936823F46043216943EAD9
:10146000C1039360FFF71AFF0A4B9B68C3F3031392
:10147000094AD35CD840094B1860094B1868FFF73C
:101480007FF8002072E70120704701206EE700BF5F
:10149000003C024000380240743100081400002073
:1014A00004000020014B1868704700BF14000020A2
:1014B00008B5FFF7F7FF044B9B68C3F38223034A89
:1014C000D35CD84008BD00BF00380240843100081A
:1014D00010B4036A046A24F001040462846924F0ED
:1014E000F00444EA021223F00A030B438261036210
:1014F0005DF8044B704710B4036A23F010030362D5
:101500008469036A24F4704444EA023223F0A0039D
:1015100043EA0113826103625DF8044B70478368FC
:1015200023F07003194341F007018160704702689E
:10153000D36843F00103D3600268936803F00703A4
:10154000062B03D0136843F001031360002070479B
:101550000268D36823F00103D3600368196A41F27B
:101560001112114208D1196A40F24442114203D1CA
:101570001A6822F001021A60002070477047704715
:101580007047704710B5044603681A6912F0020FDD
:1015900011D0DA6812F0020F0DD06FF002021A615A
:1015A0000123037703689B6913F0030F70D0FFF7E3
:1015B000E6FF0023237723681A6912F0040F12D084
:1015C000DA6812F0040F0ED06FF004021A610223E1
:1015D000237723689B6913F4407F5FD02046FFF791
:1015E000CEFF0023237723681A6912F0080F12D068
:1015F000DA6812F0080F0ED06FF008021A610423A7
:1016000023772368DB6913F0030F4ED02046FFF7E2
:10161000B6FF0023237723681A6912F0100F12D047
:10162000DA6812F0100F0ED06FF010021A61082362
:1016300023772368DB6913F4407F3DD02046FFF712
:101640009EFF0023237723681A6912F0010F03D04D
:10165000DA6812F0010F36D123681A6912F0800F90
:1016600003D0DA6812F0800F34D123681A6912F0BF
:10167000400F03D0DA6812F0400F32D123681A69A4
:1016800012F0200F03D0DA6812F0200F30D110BD15
:10169000FFF774FF2046FFF773FF8AE72046FFF746
:1016A0006DFF2046FFF76CFF9BE72046FFF766FFC4
:1016B0002046FFF765FFACE72046FFF75FFF2046B7
:1016C000FFF75EFFBDE76FF001021A61204600F0F0
:1016D000BFFBC1E76FF080021A61204600F02DF9D0
:1016E000C3E76FF040021A612046FFF74AFFC5E7E3
:1016F0006FF020021A61204600F01EF9C7E70000D3
:101700000368254A90420ED0B0F1804F0BD0A2F56D
:101710007C42904207D002F58062904203D002F5ED
:101720008062904203D123F070034A6813431A4A3F
:1017300090421AD0B0F1804F17D0A2F57C4290426F
:1017400013D002F5806290420FD002F58062904281
:101750000BD002F59A32904207D002F58062904297
:1017600003D002F58062904203D123F44073CA682B
:10177000134323F080034A69134303608B68C362F9
:101780000B688362044B984202D001234361704787
:101790000B690363F9E700BF00000140A8B110B571
:1017A000044690F83D305BB1022384F83D30211DA2
:1017B0002068FFF7A5FF012384F83D30002010BD0D
:1017C00080F83C3000F0FEFFEEE70120704710B4D7
:1017D000846824F47F4442EA03230B432343836059
:1017E0005DF8044B704790F83C30012B66D010B583
:1017F0000446012380F83C30022380F83D30026823
:10180000936823F47F4323F0770393600B68402BA6
:101810004AD013D9602B3DD01ED9702B28D0B3F5F8
:10182000005F30D1CB684A6889680068FFF7CFFF56
:101830002268936843F48043936024E0102B06D021
:1018400004D9202B03D0302B01D01CE0DBB9194682
:101850002068FFF764FE16E0502B14D1CA6849686F
:101860000068FFF735FE50212068FFF758FE0AE0B8
:10187000CB684A6889680068FFF7A9FF2268936807
:1018800043F077039360012384F83D30002084F80F
:101890003C0010BDCA6849680068FFF72CFE602153
:1018A0002068FFF73CFEEEE7CA6849680068FFF76A
:1018B0000FFE40212068FFF732FEE4E70220704768
:1018C00090F83C30012B33D030B4012380F83C3009
:1018D000022380F83D3003685C689D6824F0700442
:1018E0000A6822435A600368124A934212D0B3F145
:1018F000804F0FD0A2F57C4293420BD002F580625C
:10190000934207D002F58062934203D002F59A32E7
:10191000934204D125F080054A6815439D60012358
:1019200080F83D30002380F83C30184630BC7047CA
:1019300002207047000001407047704710B588B022
:101940000024069407940094314B1A6B42F08002F5
:101950001A631A6B02F080020092009A01941A6BCB
:1019600042F008021A631A6B02F008020192019A0F
:1019700002941A6B42F002021A631B6B03F002031B
:101980000293029B41F6FF730393224B04930123BE
:10199000059303A92048FEF7C1FE224621460620F2
:1019A000FEF764FE0620FEF795FE2246214607203C
:1019B000FEF75CFE0720FEF78DFE2246214608203A
:1019C000FEF754FE0820FEF785FE22462146092038
:1019D000FEF74CFE0920FEF77DFE224621460A2036
:1019E000FEF744FE0A20FEF775FE22462146172028
:1019F000FEF73CFE1720FEF76DFE2246214628200A
:101A0000FEF734FE2820FEF765FE08B010BD00BFCB
:101A10000038024000001110000C024008B50B48CD
:101A20000B4B03600B4B436000238360C3604FF498
:101A30008042026143618361C3610362FFF7A4F8DE
:101A400000B908BD00F08CFDFBE700BFB00000202E
:101A500000540040A086010030B589B000230393F4
:101A600004930593069307930268144B9A4201D09E
:101A700009B030BD00250195114C236B43F00203E2
:101A80002363236B03F002030193019BC0230393A1
:101A900012230493032306930423079303A90948FD
:101AA000FEF73CFE0295236C43F400132364236C81
:101AB00003F400130293029BDAE700BF00540040D6
:101AC000003802400004024010B584B021F00F033A
:101AD000134343F004038DF80C3021F00F035BB285
:101AE00054B223438DF80D3009010A4342F0040239
:101AF0008DF80E2021438DF80F10642300930423EA
:101B000003AA01460348FFF719F90520FEF788FDEF
:101B100004B010BDB000002008B590F823302BB100
:101B2000082201210078FFF7CFFF08BD0022F8E767
:101B300038B5044690F8233033B308252820FEF743
:101B40006FFD2A4630212078FFF7BEFF0520FEF703
:101B500067FD2A4630212078FFF7B6FF0120FEF707
:101B60005FFD2A4630212078FFF7AEFF2A4602218A
:101B70002078FFF7A9FF2A460C212078FFF7A4FF61
:101B80002046FFF7C9FF38BD0025D7E770B50546E9
:101B900090F8233053B900262846FFF7BDFF3246A0
:101BA00080212878FFF790FF002408E00826F3E75B
:101BB00046F001022878FFF787FF0134E4B22B19C1
:101BC00059780029F4D13246C0212878FFF77CFFEC
:101BD000002406E046F001022878FFF775FF013483
:101BE000E4B22B19997C0029F4D170BD08B5B0F589
:101BF000806F24D0B0F5006F34D0B0F5805F44D052
:101C0000012855D0022865D0042875D0082800F096
:101C10008580102800F09580202800F0A5804028BD
:101C200000F0B580802800F0C580B0F5807F00F01E
:101C3000D480B0F5007F00F0E48000BF08BD7B4B8E
:101C40001B78002BD6D0794B00221A70784B4FF4BA
:101C500080621A80774803686FF001021A61FFF70B
:101C600066FCEBE7714B1B78002BC6D06F4B002254
:101C70001A706F4B4FF400621A806E4803686FF061
:101C800001021A61FFF753FCD8E7684B1B78002B61
:101C9000B6D0664B00221A70654B4FF480521A8002
:101CA000644803686FF001021A61FFF740FCC5E762
:101CB0005E4B1B78002BA5D05C4B00221A705C4B4E
:101CC00001221A805B4803686FF001021A61FFF776
:101CD0002EFCB3E7554B1B78002B95D0534B0022BD
:101CE0001A70534B02221A80524803686FF00102A7
:101CF0001A61FFF71CFCA1E74C4B1B78002B85D029
:101D00004A4B00221A704A4B04221A804948036841
:101D10006FF001021A61FFF70AFC8FE7434B1B7853
:101D2000002B3FF476AF414B00221A70404B082243
:101D30001A80404803686FF001021A61FFF7F7FB51
:101D40007CE73A4B1B78002B3FF466AF374B002201
:101D50001A70374B10221A80364803686FF0010260
:101D60001A61FFF7E4FB69E7304B1B78002B3FF467
:101D700056AF2E4B00221A702D4B20221A802D4870
:101D800003686FF001021A61FFF7D1FB56E7274B9A
:101D90001B78002B3FF446AF244B00221A70244BD3
:101DA00040221A80234803686FF001021A61FFF78E
:101DB000BEFB43E71D4B1B78002B3FF436AF1B4B9C
:101DC00000221A701A4B80221A801A4803686FF09A
:101DD00001021A61FFF7ABFB30E7144B1B78002BB5
:101DE0003FF427AF114B00221A70114B4FF4807251
:101DF0001A80104803686FF001021A61FFF797FB21
:101E00001CE70A4B1B78002B3FF417AF074B00224F
:101E10001A70074B4FF400721A80064803686FF07F
:101E200001021A61FFF783FB08E700BF08000020EA
:101E300004010020AC010020044B5A791A719A79F0
:101E40005A71DA799A71D871704700BF0800002082
:101E500010B50446A948FFF77BFBA94B1B78002B64
:101E600040F0BB802268A74B9A4200D010BDA64B21
:101E70001B88B3F5806F34D0A34B1B88012B52D045
:101E8000A14B1B88022B58D09F4B1B88042B5ED084
:101E90009D4B1B88082B64D09B4B1B88102B6AD052
:101EA000994B1B88202B70D0974B1B88402B76D0EA
:101EB000954B1B88802B7CD0934B1B88B3F5807F80
:101EC00000F08180904B1B88B3F5007FCED1392084
:101ED000FFF7B2FF8D4B01221A708848FFF738FBDD
:101EE000C4E78A4C012323708448FFF731FB237930
:101EF000302BC1D16379302BBED1A379302BBBD12C
:101F0000E379302BB8D17E4B01221A7000225A702F
:101F10007F4803686FF001021A61FFF708FB2D206C
:101F2000FFF78AFFA8E73020FFF786FF774B0122F3
:101F30001A707248FFF70CFBA2E73120FFF77CFF15
:101F4000724B01221A706D48FFF702FB9CE73220AA
:101F5000FFF772FF6D4B01221A706848FFF7F8FA1D
:101F600096E73320FFF768FF684B01221A70634839
:101F7000FFF7EEFA90E73420FFF75EFF634B012294
:101F80001A705E48FFF7E4FA8AE73520FFF754FF3E
:101F90005E4B01221A705948FFF7DAFA84E73620BF
:101FA000FFF74AFF594B01221A705448FFF7D0FA45
:101FB0007EE73720FFF740FF544B01221A704F484D
:101FC000FFF7C6FA78E73820FFF736FF4F4B0122BC
:101FD0001A704A48FFF7BCFA74E7012B52D0032B62
:101FE0005ED0042B00F09880022B7FF43FAF226874
:101FF000444B9A427FF43AAF434B1B88012B00F0CD
:102000005381414B1B88022B00F058813E4B1B88AB
:10201000042B00F05D813C4B1B88082B00F0628193
:10202000394B1B88102B00F06781374B1B88202B06
:1020300000F06C81344B1B88402B00F07181324BD7
:102040001B88802B00F076812F4B1B88B3F5807F97
:1020500000F07A812C4B1B88B3F5007F00F07E8165
:10206000294B1B88B3F5806F7FF400AF274B1B799A
:10207000302B00F07D81254B01221A701F48FFF79D
:1020800067FAF3E62268234B9A427FF4EFAE1C4BCB
:1020900000225A7003221A701D48FFF759FAE5E62C
:1020A0002268184B9A427FF4E1AE174B1B88B3F5B8
:1020B000006F0FD0B3F5805F7FF4D8AE104B0022D5
:1020C0005A7002221A70114B01221A700B48FFF746
:1020D0003FFACBE60A4B00225A7004221A700C48D1
:1020E00003686FF001021A61FFF721FA074B012222
:1020F0001A700248FFF72CFAB8E600BFAC010020C6
:102100009800002000000140040100200800002089
:102110006C010020000C00402368A14A93423ED08D
:10212000A04A93427FF4A2AE9F4B1B88012B3FD065
:102130009D4B1B88022B45D09B4B1B88042B4BD0FF
:10214000994B1B88082B51D0974B1B88102B57D0CD
:10215000954B1B88202B5DD0934B1B88402B63D065
:10216000914B1B88802B69D08F4B1B88B3F5807FE8
:102170006ED08D4B1B88B3F5007F73D08A4B1B88C4
:10218000B3F5806F7FF472AE884B1B79302B73D020
:10219000864B01221A708648FFF7DAF966E6854B0E
:1021A00000225A7002221A708348FFF7D1F95DE6C7
:1021B0003020FFF741FE7D4B01221A707C48FFF76B
:1021C000C7F9B5E73120FFF737FE784B01221A70C7
:1021D0007748FFF7BDF9AFE73220FFF72DFE734BCD
:1021E00001221A707248FFF7B3F9A9E73320FFF70D
:1021F00023FE6E4B01221A706D48FFF7A9F9A3E781
:102200003420FFF719FE694B01221A706848FFF766
:102210009FF99DE73520FFF70FFE644B01221A70EE
:102220006348FFF795F997E73620FFF705FE5F4B08
:1022300001221A705E48FFF78BF991E73720FFF70C
:10224000FBFD5A4B01221A705948FFF781F98BE7C1
:102250003820FFF7F1FD554B01221A705448FFF763
:1022600077F986E73920FFF7E7FD504B01221A7016
:102270004F48FFF76DF981E74C4B5B79302B87D1E5
:102280004A4B9B79302B83D1484BDB79302B7FF441
:102290007FAF4948FFF75CF9464B00225A701A702D
:1022A0002D20FFF7C9FD73E73020FFF7C5FD3F4B39
:1022B00001221A703E48FFF74BF9A2E63120FFF7E2
:1022C000BBFD3A4B01221A703948FFF741F99DE6F0
:1022D0003220FFF7B1FD354B01221A703448FFF769
:1022E00037F998E63320FFF7A7FD304B01221A702B
:1022F0002F48FFF72DF993E63420FFF79DFD2B4B78
:1023000001221A702A48FFF723F98EE63520FFF7DD
:1023100093FD264B01221A702548FFF719F989E62B
:102320003620FFF789FD214B01221A702048FFF764
:102330000FF984E63720FFF77FFD1C4B01221A704E
:102340001B48FFF705F97FE63820FFF775FD174BAF
:1023500001221A701648FFF7FBF87BE63920FFF7D9
:102360006BFD124B01221A701148FFF7F1F877E666
:102370000E4B5B79302B7FF47EAE0C4B9B79302B70
:102380007FF479AE094BDB79302B7FF474AE094BC7
:1023900000225A701A702D20FFF74EFD6BE600BF29
:1023A000000C004000000140040100200800002053
:1023B000AC010020980000206C01002030B595B0E1
:1023C0003022002108A800F0A5FA00240394049408
:1023D00005940694079401941B4B1A6C42F08052AA
:1023E0001A641B6C03F080530193019B0294174BFA
:1023F0001A6842F440421A601B6803F44043029397
:10240000029B012308934FF48033099302250E9514
:102410004FF480030F930C231093602311931295B4
:102420000423139308A8FEF743FD0F230393049599
:1024300005944FF4805306930794032103A8FEF7F5
:1024400081FF15B030BD00BF003802400070004071
:1024500000B585B0FEF7B8F8FFF7B0FFFFF76EFAEA
:10246000FFF7DCFA00F094F900F01EF900F056F9DD
:10247000324B00221A7032484E230370012380F839
:102480002330FFF755FB20E02E4D2F4B18682C46CC
:1024900044F8110B04222D490DEB020000F062FA02
:1024A00020238DF808308DF809308DF80A308DF82A
:1024B0000B308DF80C3000238DF80D3001A920462B
:1024C00000F030FA681EFFF761FB1C4B1B78002BF5
:1024D000DAD0022B0FD0012B1CD0032B23D0042BDE
:1024E000F3D1184C1A4B07CB20606160A260601ECC
:1024F000FFF74CFBE9E7134C164B186820601B797B
:102500002371124904F1110000F00CFA601EFFF76C
:102510003DFBDAE70B4A104B03CB10605160501EB5
:10252000FFF734FBD1E7074B0C4A1068186092881C
:102530009A80581EFFF72AFBC7E700BF98000020CB
:1025400008010020090100208C3100080C00002047
:10255000A83100089031000898310008A031000827
:102560007047000082B0002100910B4B5A6C42F47E
:1025700080425A645A6C02F480420092009A01919F
:102580001A6C42F080521A641B6C03F08053019362
:10259000019B02B0704700BF003802407047FEE761
:1025A000FEE7FEE7FEE770477047704708B5FEF7A5
:1025B00025F808BD08B50120FEF782F908BD08B569
:1025C0000220FEF77DF908BD08B50420FEF778F972
:1025D00008BD08B50820FEF773F908BD08B510203E
:1025E000FEF76EF908BD08B52020FEF769F9402016
:1025F000FEF766F98020FEF763F94FF48070FEF76E
:102600005FF94FF40070FEF75BF908BD08B50348A9
:10261000FEF7B8FF0248FEF7B5FF08BDAC01002089
:102620002C01002008B54FF48060FEF749F94FF403
:102630000060FEF745F94FF48050FEF741F908BD00
:1026400008B50248FEF79EFF08BD00BF6C010020E0
:1026500008B503460B4A126842B10A4A106803449F
:102660006A46934206D8074A136008BD054A0649E0
:102670001160F2E700F024F90C2303604FF0FF3003
:10268000F3E700BF9C000020F0010020054BD3F8C9
:10269000882042F47002C3F888204FF000629A60EC
:1026A000704700BF00ED00E000B587B00023029343
:1026B000039304930593009301931648164A02600E
:1026C00042F20F72426083604FF49672C2600361FF
:1026D00043618361FFF762F898B906A94FF480530C
:1026E00041F8103D0B48FFF77EF868B900230093CE
:1026F000019369460748FFF7E3F840B907B05DF872
:1027000004FBFFF72DFFE8E7FFF72AFFEEE7FFF7EF
:1027100027FFF3E7AC0100200000014000B587B0BF
:1027200000230293039304930593009301931648A7
:10273000164A026042F20F724260836047F22F52E3
:10274000C26003618361FFF729F898B906A94FF4C5
:10275000805341F8103D0C48FFF745F868B9002355
:102760000093019369460848FFF7AAF840B907B0FB
:102770005DF804FBFFF7F4FEE8E7FFF7F1FEEEE794
:10278000FFF7EEFEF3E700BF6C010020000C0040F5
:1027900008B50A480A4B036042F20F7343600023F6
:1027A00083604CF25032C26003618361FEF7F6FF32
:1027B00000B908BDFFF7D4FEFBE700BF2C010020E5
:1027C0000044014000B585B00368244A934208D014
:1027D000234A934219D0234A93422AD005B05DF888
:1027E00004FB00210191204B5A6C42F001025A6413
:1027F0005B6C03F001030193019B0A461920FDF76E
:1028000035FF1920FDF766FFE8E700210291164B1E
:102810001A6C42F008021A641B6C03F0080302935E
:10282000029B0A463220FDF721FF3220FDF752FFBE
:10283000D4E7002103910C4B5A6C42F400325A64E5
:102840005B6C03F400330393039B0A461920FDF7E6
:102850000DFF1920FDF73EFFC0E700BF000001405B
:10286000000C00400044014000380240DFF834D042
:10287000002103E00C4B5B58435004310B480C4BD8
:1028800042189A42F6D30B4A02E0002342F8043B76
:10289000094B9A42F9D3FFF7F9FE00F017F8FFF75A
:1028A000D7FD704700000220F8310008000000202A
:1028B0007C0000207C000020F0010020FEE70000EA
:1028C000014B1868704700BF1800002070B50D4E0E
:1028D0000D4CA41BA4100025A54209D10B4E0C4C95
:1028E00000F03CFCA41BA4100025A54205D170BD3E
:1028F00056F8253098470135EEE756F825309847C9
:102900000135F2E7F0310008F0310008F03100083D
:10291000F431000802440346934200D1704703F8A3
:10292000011BF9E70EB400B59CB01DAB02900690F8
:102930006FF00041094807910491094953F8042BAD
:1029400005910068019302A900F07CF8029B002227
:102950001A701CB05DF804EB03B07047180000203B
:102960000802FFFF70B50139044602B970BD234665
:1029700011F8015F03F8015B561E2DB91444A34200
:10298000F4D003F8015BFAE71C463246EDE72DE987
:10299000F0478E689E4282460C469046994637D84C
:1029A0008A8912F4906F31D0256809696F1A6569B8
:1029B000022305EB450595FBF3F509F101033B44C3
:1029C0009D4238BF1D46530530D5294600F02CFBEB
:1029D000064650B90C23CAF80030A38943F04003DF
:1029E000A3814FF0FF30BDE8F0873A46216900F03F
:1029F000A9FAA38923F4906343F08003A38126619D
:102A000065613E44ED1B2660A5604E464E4500D9EB
:102A10004E4632464146206800F09FFAA3689B1B51
:102A2000A36023681E4426600020DCE72A4600F0ED
:102A300055FB06460028E2D12169504600F0A6FA6F
:102A4000C8E700002DE9F04F1D468B891F069DB099
:102A500080460C4616460FD50B696BB9402100F035
:102A6000E3FA2060206128B90C23C8F800304FF049
:102A7000FF30C8E0402363610023099320238DF8D1
:102A8000293030238DF82A3003954FF0010B37465B
:102A90003D4615F8013B0BB1252B3ED1B7EB060A9D
:102AA0000BD05346324621464046FFF770FF0130B7
:102AB00000F0A480099B534409933B78002B00F05D
:102AC0009D8000234FF0FF32CDE905230493079347
:102AD0008DF853301A932F46052217F8011B5048E2
:102AE000FDF7FEFC049BD0B9D90644BF20228DF827
:102AF00053201A0744BF2B228DF853202A782A2A04
:102B000015D0079A2F4600200A25394611F8013BB7
:102B1000303B092B4DD9B8B10FE02F46B8E7404AFA
:102B2000801A0BFA00F0184304903D46D3E7039A4D
:102B3000111D12680391002A01DB079204E0524242
:102B400043F00203079204933B782E2B0CD17B7841
:102B50002A2B33D1039B1A1D1B680392002BB8BF8D
:102B60004FF0FF33023705932E4D39780322284664
:102B7000FDF7B6FC38B14023401B03FA00F0049B7C
:102B8000034301370493397827488DF8281006222B
:102B90007E1CFDF7A5FC002838D0244B13BB039BFB
:102BA000073323F0070308330393099B4B4409932E
:102BB0006DE705FB023201200F46A6E7002301372F
:102BC000059319460A25384610F8012B303A092A90
:102BD00003D9002BC8D00591C6E705FB01210123CD
:102BE0000746F0E703AB00932246114B04A9404689
:102BF000AFF30080B0F1FF3F8146D6D1A3895B06D9
:102C00003FF535AF09981DB0BDE8F08F03AB0093D9
:102C10002246074B04A9404600F082F8EAE700BFCD
:102C2000B4310008BA310008BE31000800000000CD
:102C30008F2900082DE9F04791461F468A680B69E5
:102C4000DDF820809342B8BF1346C9F8003091F8F0
:102C5000432006460C4612B10133C9F80030236800
:102C6000990642BFD9F800300233C9F80030256810
:102C700015F0060507D104F1190AE368D9F8002018
:102C80009B1AAB4228DC94F843302268003318BF0B
:102C9000012392062DD404F1430239463046C04741
:102CA000013020D02368E568D9F8002003F006033E
:102CB000042B08BFAD1AA36822690CBF25EAE5758D
:102CC00000259342C4BF9B1AED184FF000091A3437
:102CD0004D451AD1002008E00123524639463046BE
:102CE000C047013003D14FF0FF30BDE8F087013518
:102CF000C3E7E1185A1C302081F84300224494F8BD
:102D0000451082F843100233C5E7012322463946B5
:102D10003046C0470130E6D009F10109D8E700008C
:102D20002DE9F04301F1430C0C46097E85B06E2974
:102D30001746064698460C9A00F0B38022D86329BD
:102D400036D00AD8002900F0B980582900F08380D5
:102D500004F1420584F8421032E0642901D0692967
:102D6000F6D120681368050603F104012AD51B6813
:102D70001160002B03DA2D225B4284F843206F4858
:102D80000A2239E0732900F09D8008D86F2920D0ED
:102D90007029DDD1236843F02003236003E0752907
:102DA00017D07829D4D1782384F84530644855E089
:102DB0001368191D1B68116004F1420584F8423044
:102DC00001238CE01B68116010F0400F18BF1BB28C
:102DD000CFE713682568181D1060280601D51B6809
:102DE00002E06806FBD51B8854486F2914BF0A22ED
:102DF0000822002184F843106568A560002DC0F208
:102E00009580216821F004012160002B3DD1002D27
:102E100040F08E806546082A0BD12368DB0708D571
:102E2000236962689A42DEBF302305F8013C05F150
:102E3000FF35ACEB05032361CDF800803B4603AAC8
:102E400021463046FFF7F6FE01304DD14FF0FF30FE
:102E500005B0BDE8F083394884F84510136821684F
:102E60001D1D1B6815600A060BD5CA0744BF41F03B
:102E7000200121601BB9226822F02002226010226A
:102E8000B7E74D0648BF9BB2EFE76546B3FBF2F1EB
:102E900002FB1133C35C05F8013D0B460029F5D157
:102EA000B9E7136825686169181D106028061B685A
:102EB00001D5196002E06A06FBD519800023236161
:102EC0006546B9E71368191D11601D686268002125
:102ED0002846FDF705FB08B1401B6060636823616D
:102EE000002384F84330A7E723692A463946304651
:102EF000C0470130AAD023689B0713D4E068039B26
:102F00009842B8BF1846A3E701234A4639463046DF
:102F1000C04701309AD00135E368039A9B1AAB424F
:102F2000F2DCEBE7002504F11909F5E7002BACD141
:102F3000037884F8423004F142056CE7C53100089B
:102F4000D631000810B5431E0A44914200D110BD8D
:102F500011F8014B03F8014FF7E7884210B501EB78
:102F6000020307D8421E99420AD011F8014B02F819
:102F7000014FF8E78342F5D98118D21AD34200D124
:102F800010BD13F8014D01F8014DF7E738B50546BE
:102F9000002945D051F8043C0C1F002BB8BFE418A1
:102FA00000F0D2F81F4A1368104633B9636014600A
:102FB0002846BDE8384000F0C8B8A3420CD92168C3
:102FC0006218934204BF1A685B68636004BF5218BA
:102FD00022600460ECE713465A680AB1A242FAD9AB
:102FE00019685818A0420BD1206801445818824231
:102FF0001960DDD1106852685A6001441960D7E742
:1030000002D90C232B60D3E7206821188A4204BF21
:1030100011685268626004BF091821605C60C7E7EC
:1030200038BD00BFA400002070B5CD1C25F00305FD
:1030300008350C2D38BF0C25002D064601DBA942B2
:1030400003D90C233360002070BD00F07DF8214AC5
:103050001468214691B9204C23681BB9304600F012
:1030600063F820602946304600F05EF8431C24D106
:103070000C233360304600F068F8E4E70B685B1B14
:1030800018D40B2B0FD90B60CD50CC18304600F064
:103090005CF804F10B00231D20F00700C31AD3D005
:1030A0005A42E250D0E78C424B6816BF636013600F
:1030B0000C46EBE70C464968CCE7C41C24F003043B
:1030C000A04205D0211A304600F02EF80130CFD0B2
:1030D0002560DBE7A4000020A8000020F8B5074623
:1030E00014460E4621B91146BDE8F840FFF79CBFD3
:1030F00022B9FFF74BFF25462846F8BD00F026F819
:10310000A0420FD221463846FFF78EFF0546002821
:10311000F2D031462246FFF715FF31463846FFF719
:1031200035FFE9E73546E7E738B5064C00230546A5
:1031300008462360FFF78CFA431C02D1236803B1D1
:103140002B6038BDEC0100207047704751F8043CFB
:10315000181F002BBCBF0B58C0187047F8B500BF34
:10316000F8BC08BC9E467047F8B500BFF8BC08BC68
:043170009E467047C0
:103174000000000000000000010203040607080923
:1031840000000000010203044F4646004C4F554422
:103194000000000054494D4531307300524541440C
:1031A40059000000524541445928646F6F72290048
:1031B400232D302B2000686C4C006566674546471C
:1031C400003031323334353637383941424344459F
:1031D400460030313233343536373839616263640E
:0431E400656600001C
:0831E80028D0FF7F0100000068
:0431F000C50100080D
:0431F400A10100082D
:1031F8000100000010000000010000002D2D2D2D01
:10320800303030300024F4001C00002000000000A2
:1032180000000000000000000000000000000000A6
:103228000000000000000000000000000000000096
:103238000000000000000000000000000000000086
:103248000000000000000000000000000000000076
:103258000000000000000000000000000000000066
:0C3268000000000000000000000000005A
:040000050800286D5A
:00000001FF
